{
  "contractName": "EcogyOracle",
  "abi": [
    {
      "constant": true,
      "inputs": [],
      "name": "wattHours",
      "outputs": [
        {
          "name": "",
          "type": "uint256"
        }
      ],
      "payable": false,
      "stateMutability": "view",
      "type": "function",
      "signature": "0x476982c9"
    },
    {
      "inputs": [],
      "payable": false,
      "stateMutability": "nonpayable",
      "type": "constructor",
      "signature": "constructor"
    },
    {
      "anonymous": false,
      "inputs": [
        {
          "indexed": false,
          "name": "description",
          "type": "string"
        }
      ],
      "name": "NewOraclizeQuery",
      "type": "event",
      "signature": "0x096835e36c2ccea88ff2b3aca87dfc938b977e52ea656873ff76a8dba50d4d34"
    },
    {
      "anonymous": false,
      "inputs": [
        {
          "indexed": false,
          "name": "wattHours",
          "type": "string"
        }
      ],
      "name": "NewWattHours",
      "type": "event",
      "signature": "0xbd6260690bc2f4f8182639d96bcf82b62fb91db59e787d64a8107a96586ff867"
    },
    {
      "constant": false,
      "inputs": [
        {
          "name": "queryId",
          "type": "bytes32"
        },
        {
          "name": "result",
          "type": "string"
        }
      ],
      "name": "__callback",
      "outputs": [],
      "payable": false,
      "stateMutability": "nonpayable",
      "type": "function",
      "signature": "0x27dc297e"
    },
    {
      "constant": false,
      "inputs": [
        {
          "name": "_myid",
          "type": "bytes32"
        },
        {
          "name": "_result",
          "type": "string"
        },
        {
          "name": "_proof",
          "type": "bytes"
        }
      ],
      "name": "__callback",
      "outputs": [],
      "payable": false,
      "stateMutability": "nonpayable",
      "type": "function",
      "signature": "0x38bbfa50"
    },
    {
      "constant": true,
      "inputs": [],
      "name": "get",
      "outputs": [
        {
          "name": "",
          "type": "uint256"
        },
        {
          "name": "",
          "type": "uint256"
        }
      ],
      "payable": false,
      "stateMutability": "view",
      "type": "function",
      "signature": "0x6d4ce63c"
    },
    {
      "constant": false,
      "inputs": [],
      "name": "update",
      "outputs": [],
      "payable": true,
      "stateMutability": "payable",
      "type": "function",
      "signature": "0xa2e62045"
    }
  ],
  "bytecode": "0x60806040526103e86006553480156200001757600080fd5b50736f485c8bf6fc43ea212e93bbf8ce046c7f1cb475600160006101000a81548173ffffffffffffffffffffffffffffffffffffffff021916908373ffffffffffffffffffffffffffffffffffffffff160217905550620000866200008c640100000000026401000000009004565b620013a2565b3073ffffffffffffffffffffffffffffffffffffffff1631620000f36040805190810160405280600381526020017f55524c00000000000000000000000000000000000000000000000000000000008152506200033e640100000000026401000000009004565b1115620001b4577f096835e36c2ccea88ff2b3aca87dfc938b977e52ea656873ff76a8dba50d4d3460405180806020018281038252604b8152602001807f4f7261636c697a6520717565727920776173204e4f542073656e742c20706c6581526020017f6173652061646420736f6d652045544820746f20636f76657220666f7220746881526020017f652071756572792066656500000000000000000000000000000000000000000081525060600191505060405180910390a16200033c565b7f096835e36c2ccea88ff2b3aca87dfc938b977e52ea656873ff76a8dba50d4d3460405180806020018281038252603a8152602001807f4f7261636c697a65207175657279205b75706461746528295d2077617320736581526020017f6e742c2077616974696e6720666f72206120726573706f6e736500000000000081525060400191505060405180910390a16200033a6040805190810160405280600381526020017f55524c000000000000000000000000000000000000000000000000000000000081525060a060405190810160405280606f81526020017f6a736f6e2868747470733a2f2f646174612e736f6c61726e6574776f726b2e6e81526020017f65742f736f6c617271756572792f6170692f76312f7075622f646174756d2f6d81526020017f6f7374526563656e743f6e6f646549643d333338292e646174612e726573756c81526020017f74735b305d2e77617474486f757273000000000000000000000000000000000081525062000756640100000000026401000000009004565b505b565b60008073ffffffffffffffffffffffffffffffffffffffff16600160009054906101000a900473ffffffffffffffffffffffffffffffffffffffff1673ffffffffffffffffffffffffffffffffffffffff161480620003d857506000620003d6600160009054906101000a900473ffffffffffffffffffffffffffffffffffffffff1662000d4b640100000000026401000000009004565b145b15620003fb57620003f9600062000d56640100000000026401000000009004565b505b600160009054906101000a900473ffffffffffffffffffffffffffffffffffffffff1673ffffffffffffffffffffffffffffffffffffffff166338cc48316040518163ffffffff167c0100000000000000000000000000000000000000000000000000000000028152600401602060405180830381600087803b1580156200048257600080fd5b505af115801562000497573d6000803e3d6000fd5b505050506040513d6020811015620004ae57600080fd5b810190808051906020019092919050505073ffffffffffffffffffffffffffffffffffffffff166000809054906101000a900473ffffffffffffffffffffffffffffffffffffffff1673ffffffffffffffffffffffffffffffffffffffff161415156200061957600160009054906101000a900473ffffffffffffffffffffffffffffffffffffffff1673ffffffffffffffffffffffffffffffffffffffff166338cc48316040518163ffffffff167c0100000000000000000000000000000000000000000000000000000000028152600401602060405180830381600087803b1580156200059c57600080fd5b505af1158015620005b1573d6000803e3d6000fd5b505050506040513d6020811015620005c857600080fd5b81019080805190602001909291905050506000806101000a81548173ffffffffffffffffffffffffffffffffffffffff021916908373ffffffffffffffffffffffffffffffffffffffff1602179055505b6000809054906101000a900473ffffffffffffffffffffffffffffffffffffffff1673ffffffffffffffffffffffffffffffffffffffff1663524f3889836040518263ffffffff167c01000000000000000000000000000000000000000000000000000000000281526004018080602001828103825283818151815260200191508051906020019080838360005b83811015620006c4578082015181840152602081019050620006a7565b50505050905090810190601f168015620006f25780820380516001836020036101000a031916815260200191505b5092505050602060405180830381600087803b1580156200071257600080fd5b505af115801562000727573d6000803e3d6000fd5b505050506040513d60208110156200073e57600080fd5b81019080805190602001909291905050509050919050565b60008073ffffffffffffffffffffffffffffffffffffffff16600160009054906101000a900473ffffffffffffffffffffffffffffffffffffffff1673ffffffffffffffffffffffffffffffffffffffff161480620007f057506000620007ee600160009054906101000a900473ffffffffffffffffffffffffffffffffffffffff1662000d4b640100000000026401000000009004565b145b15620008135762000811600062000d56640100000000026401000000009004565b505b600160009054906101000a900473ffffffffffffffffffffffffffffffffffffffff1673ffffffffffffffffffffffffffffffffffffffff166338cc48316040518163ffffffff167c0100000000000000000000000000000000000000000000000000000000028152600401602060405180830381600087803b1580156200089a57600080fd5b505af1158015620008af573d6000803e3d6000fd5b505050506040513d6020811015620008c657600080fd5b810190808051906020019092919050505073ffffffffffffffffffffffffffffffffffffffff166000809054906101000a900473ffffffffffffffffffffffffffffffffffffffff1673ffffffffffffffffffffffffffffffffffffffff1614151562000a3157600160009054906101000a900473ffffffffffffffffffffffffffffffffffffffff1673ffffffffffffffffffffffffffffffffffffffff166338cc48316040518163ffffffff167c0100000000000000000000000000000000000000000000000000000000028152600401602060405180830381600087803b158015620009b457600080fd5b505af1158015620009c9573d6000803e3d6000fd5b505050506040513d6020811015620009e057600080fd5b81019080805190602001909291905050506000806101000a81548173ffffffffffffffffffffffffffffffffffffffff021916908373ffffffffffffffffffffffffffffffffffffffff1602179055505b60008060009054906101000a900473ffffffffffffffffffffffffffffffffffffffff1673ffffffffffffffffffffffffffffffffffffffff1663524f3889856040518263ffffffff167c01000000000000000000000000000000000000000000000000000000000281526004018080602001828103825283818151815260200191508051906020019080838360005b8381101562000ade57808201518184015260208101905062000ac1565b50505050905090810190601f16801562000b0c5780820380516001836020036101000a031916815260200191505b5092505050602060405180830381600087803b15801562000b2c57600080fd5b505af115801562000b41573d6000803e3d6000fd5b505050506040513d602081101562000b5857600080fd5b8101908080519060200190929190505050905062030d403a02670de0b6b3a76400000181111562000b9157600060010291505062000d45565b6000809054906101000a900473ffffffffffffffffffffffffffffffffffffffff1673ffffffffffffffffffffffffffffffffffffffff1663adf59f9982600087876040518563ffffffff167c0100000000000000000000000000000000000000000000000000000000028152600401808481526020018060200180602001838103835285818151815260200191508051906020019080838360005b8381101562000c4a57808201518184015260208101905062000c2d565b50505050905090810190601f16801562000c785780820380516001836020036101000a031916815260200191505b50838103825284818151815260200191508051906020019080838360005b8381101562000cb357808201518184015260208101905062000c96565b50505050905090810190601f16801562000ce15780820380516001836020036101000a031916815260200191505b50955050505050506020604051808303818588803b15801562000d0357600080fd5b505af115801562000d18573d6000803e3d6000fd5b50505050506040513d602081101562000d3057600080fd5b81019080805190602001909291905050509150505b92915050565b6000813b9050919050565b600062000d7162000d78640100000000026401000000009004565b9050919050565b60008062000da9731d3b2638a7cc9f2cb3d298a3da7a90b67e5506ed62000d4b640100000000026401000000009004565b111562000e5e57731d3b2638a7cc9f2cb3d298a3da7a90b67e5506ed600160006101000a81548173ffffffffffffffffffffffffffffffffffffffff021916908373ffffffffffffffffffffffffffffffffffffffff16021790555062000e546040805190810160405280600b81526020017f6574685f6d61696e6e6574000000000000000000000000000000000000000000815250620012d7640100000000026401000000009004565b60019050620012d4565b600062000e8e73c03a2615d5efaf5f49f60b7bb6583eaec212fdf162000d4b640100000000026401000000009004565b111562000f435773c03a2615d5efaf5f49f60b7bb6583eaec212fdf1600160006101000a81548173ffffffffffffffffffffffffffffffffffffffff021916908373ffffffffffffffffffffffffffffffffffffffff16021790555062000f396040805190810160405280600c81526020017f6574685f726f707374656e330000000000000000000000000000000000000000815250620012d7640100000000026401000000009004565b60019050620012d4565b600062000f7373b7a07bcf2ba2f2703b24c0691b5278999c59ac7e62000d4b640100000000026401000000009004565b1115620010285773b7a07bcf2ba2f2703b24c0691b5278999c59ac7e600160006101000a81548173ffffffffffffffffffffffffffffffffffffffff021916908373ffffffffffffffffffffffffffffffffffffffff1602179055506200101e6040805190810160405280600981526020017f6574685f6b6f76616e0000000000000000000000000000000000000000000000815250620012d7640100000000026401000000009004565b60019050620012d4565b60006200105873146500cfd35b22e4a392fe0adc06de1a1368ed4862000d4b640100000000026401000000009004565b11156200110d5773146500cfd35b22e4a392fe0adc06de1a1368ed48600160006101000a81548173ffffffffffffffffffffffffffffffffffffffff021916908373ffffffffffffffffffffffffffffffffffffffff160217905550620011036040805190810160405280600b81526020017f6574685f72696e6b656279000000000000000000000000000000000000000000815250620012d7640100000000026401000000009004565b60019050620012d4565b60006200113d736f485c8bf6fc43ea212e93bbf8ce046c7f1cb47562000d4b640100000000026401000000009004565b1115620011a357736f485c8bf6fc43ea212e93bbf8ce046c7f1cb475600160006101000a81548173ffffffffffffffffffffffffffffffffffffffff021916908373ffffffffffffffffffffffffffffffffffffffff16021790555060019050620012d4565b6000620011d37320e12a1f859b3feae5fb2a0a32c18f5a65555bbf62000d4b640100000000026401000000009004565b111562001239577320e12a1f859b3feae5fb2a0a32c18f5a65555bbf600160006101000a81548173ffffffffffffffffffffffffffffffffffffffff021916908373ffffffffffffffffffffffffffffffffffffffff16021790555060019050620012d4565b6000620012697351efaf4c8b3c9afbd5ab9f4bbc82784ab6ef8faa62000d4b640100000000026401000000009004565b1115620012cf577351efaf4c8b3c9afbd5ab9f4bbc82784ab6ef8faa600160006101000a81548173ffffffffffffffffffffffffffffffffffffffff021916908373ffffffffffffffffffffffffffffffffffffffff16021790555060019050620012d4565b600090505b90565b8060029080519060200190620012ef929190620012f3565b5050565b828054600181600116156101000203166002900490600052602060002090601f016020900481019282601f106200133657805160ff191683800117855562001367565b8280016001018555821562001367579182015b828111156200136657825182559160200191906001019062001349565b5b5090506200137691906200137a565b5090565b6200139f91905b808211156200139b57600081600090555060010162001381565b5090565b90565b611ca980620013b26000396000f3fe60806040526004361061006d576000357c0100000000000000000000000000000000000000000000000000000000900463ffffffff16806327dc297e1461007257806338bbfa5014610144578063476982c9146102ad5780636d4ce63c146102d8578063a2e620451461030a575b600080fd5b34801561007e57600080fd5b506101426004803603604081101561009557600080fd5b8101908080359060200190929190803590602001906401000000008111156100bc57600080fd5b8201836020820111156100ce57600080fd5b803590602001918460018302840111640100000000831117156100f057600080fd5b91908080601f016020809104026020016040519081016040528093929190818152602001838380828437600081840152601f19601f820116905080830192505050505050509192919290505050610314565b005b34801561015057600080fd5b506102ab6004803603606081101561016757600080fd5b81019080803590602001909291908035906020019064010000000081111561018e57600080fd5b8201836020820111156101a057600080fd5b803590602001918460018302840111640100000000831117156101c257600080fd5b91908080601f016020809104026020016040519081016040528093929190818152602001838380828437600081840152601f19601f8201169050808301925050505050505091929192908035906020019064010000000081111561022557600080fd5b82018360208201111561023757600080fd5b8035906020019184600183028401116401000000008311171561025957600080fd5b91908080601f016020809104026020016040519081016040528093929190818152602001838380828437600081840152601f19601f8201169050808301925050505050505091929192905050506104a0565b005b3480156102b957600080fd5b506102c26104a5565b6040518082815260200191505060405180910390f35b3480156102e457600080fd5b506102ed6104ab565b604051808381526020018281526020019250505060405180910390f35b6103126104bc565b005b61031c61074a565b73ffffffffffffffffffffffffffffffffffffffff163373ffffffffffffffffffffffffffffffffffffffff161415156103e4576040517f08c379a00000000000000000000000000000000000000000000000000000000081526004018080602001828103825260288152602001807f63616c6c6261636b2072656365697665642066726f6d20696e636f727265637481526020017f206164647265737300000000000000000000000000000000000000000000000081525060400191505060405180910390fd5b6103ed81610abd565b6005819055507fbd6260690bc2f4f8182639d96bcf82b62fb91db59e787d64a8107a96586ff867816040518080602001828103825283818151815260200191508051906020019080838360005b8381101561045557808201518184015260208101905061043a565b50505050905090810190601f1680156104825780820380516001836020036101000a031916815260200191505b509250505060405180910390a1600554600654026007819055505050565b505050565b60055481565b600080600754600554915091509091565b3073ffffffffffffffffffffffffffffffffffffffff16316105126040805190810160405280600381526020017f55524c0000000000000000000000000000000000000000000000000000000000815250610ad1565b11156105d1577f096835e36c2ccea88ff2b3aca87dfc938b977e52ea656873ff76a8dba50d4d3460405180806020018281038252604b8152602001807f4f7261636c697a6520717565727920776173204e4f542073656e742c20706c6581526020017f6173652061646420736f6d652045544820746f20636f76657220666f7220746881526020017f652071756572792066656500000000000000000000000000000000000000000081525060600191505060405180910390a1610748565b7f096835e36c2ccea88ff2b3aca87dfc938b977e52ea656873ff76a8dba50d4d3460405180806020018281038252603a8152602001807f4f7261636c697a65207175657279205b75706461746528295d2077617320736581526020017f6e742c2077616974696e6720666f72206120726573706f6e736500000000000081525060400191505060405180910390a16107466040805190810160405280600381526020017f55524c000000000000000000000000000000000000000000000000000000000081525060a060405190810160405280606f81526020017f6a736f6e2868747470733a2f2f646174612e736f6c61726e6574776f726b2e6e81526020017f65742f736f6c617271756572792f6170692f76312f7075622f646174756d2f6d81526020017f6f7374526563656e743f6e6f646549643d333338292e646174612e726573756c81526020017f74735b305d2e77617474486f7572730000000000000000000000000000000000815250610eb8565b505b565b60008073ffffffffffffffffffffffffffffffffffffffff16600160009054906101000a900473ffffffffffffffffffffffffffffffffffffffff1673ffffffffffffffffffffffffffffffffffffffff1614806107d2575060006107d0600160009054906101000a900473ffffffffffffffffffffffffffffffffffffffff16611471565b145b156107e3576107e1600061147c565b505b600160009054906101000a900473ffffffffffffffffffffffffffffffffffffffff1673ffffffffffffffffffffffffffffffffffffffff166338cc48316040518163ffffffff167c0100000000000000000000000000000000000000000000000000000000028152600401602060405180830381600087803b15801561086957600080fd5b505af115801561087d573d6000803e3d6000fd5b505050506040513d602081101561089357600080fd5b810190808051906020019092919050505073ffffffffffffffffffffffffffffffffffffffff166000809054906101000a900473ffffffffffffffffffffffffffffffffffffffff1673ffffffffffffffffffffffffffffffffffffffff161415156109fa57600160009054906101000a900473ffffffffffffffffffffffffffffffffffffffff1673ffffffffffffffffffffffffffffffffffffffff166338cc48316040518163ffffffff167c0100000000000000000000000000000000000000000000000000000000028152600401602060405180830381600087803b15801561097f57600080fd5b505af1158015610993573d6000803e3d6000fd5b505050506040513d60208110156109a957600080fd5b81019080805190602001909291905050506000806101000a81548173ffffffffffffffffffffffffffffffffffffffff021916908373ffffffffffffffffffffffffffffffffffffffff1602179055505b6000809054906101000a900473ffffffffffffffffffffffffffffffffffffffff1673ffffffffffffffffffffffffffffffffffffffff1663c281d19e6040518163ffffffff167c010000000000000000000000000000000000000000000000000000000002815260040160206040518083038186803b158015610a7d57600080fd5b505afa158015610a91573d6000803e3d6000fd5b505050506040513d6020811015610aa757600080fd5b8101908080519060200190929190505050905090565b6000610aca82600061148d565b9050919050565b60008073ffffffffffffffffffffffffffffffffffffffff16600160009054906101000a900473ffffffffffffffffffffffffffffffffffffffff1673ffffffffffffffffffffffffffffffffffffffff161480610b5957506000610b57600160009054906101000a900473ffffffffffffffffffffffffffffffffffffffff16611471565b145b15610b6a57610b68600061147c565b505b600160009054906101000a900473ffffffffffffffffffffffffffffffffffffffff1673ffffffffffffffffffffffffffffffffffffffff166338cc48316040518163ffffffff167c0100000000000000000000000000000000000000000000000000000000028152600401602060405180830381600087803b158015610bf057600080fd5b505af1158015610c04573d6000803e3d6000fd5b505050506040513d6020811015610c1a57600080fd5b810190808051906020019092919050505073ffffffffffffffffffffffffffffffffffffffff166000809054906101000a900473ffffffffffffffffffffffffffffffffffffffff1673ffffffffffffffffffffffffffffffffffffffff16141515610d8157600160009054906101000a900473ffffffffffffffffffffffffffffffffffffffff1673ffffffffffffffffffffffffffffffffffffffff166338cc48316040518163ffffffff167c0100000000000000000000000000000000000000000000000000000000028152600401602060405180830381600087803b158015610d0657600080fd5b505af1158015610d1a573d6000803e3d6000fd5b505050506040513d6020811015610d3057600080fd5b81019080805190602001909291905050506000806101000a81548173ffffffffffffffffffffffffffffffffffffffff021916908373ffffffffffffffffffffffffffffffffffffffff1602179055505b6000809054906101000a900473ffffffffffffffffffffffffffffffffffffffff1673ffffffffffffffffffffffffffffffffffffffff1663524f3889836040518263ffffffff167c01000000000000000000000000000000000000000000000000000000000281526004018080602001828103825283818151815260200191508051906020019080838360005b83811015610e2a578082015181840152602081019050610e0f565b50505050905090810190601f168015610e575780820380516001836020036101000a031916815260200191505b5092505050602060405180830381600087803b158015610e7657600080fd5b505af1158015610e8a573d6000803e3d6000fd5b505050506040513d6020811015610ea057600080fd5b81019080805190602001909291905050509050919050565b60008073ffffffffffffffffffffffffffffffffffffffff16600160009054906101000a900473ffffffffffffffffffffffffffffffffffffffff1673ffffffffffffffffffffffffffffffffffffffff161480610f4057506000610f3e600160009054906101000a900473ffffffffffffffffffffffffffffffffffffffff16611471565b145b15610f5157610f4f600061147c565b505b600160009054906101000a900473ffffffffffffffffffffffffffffffffffffffff1673ffffffffffffffffffffffffffffffffffffffff166338cc48316040518163ffffffff167c0100000000000000000000000000000000000000000000000000000000028152600401602060405180830381600087803b158015610fd757600080fd5b505af1158015610feb573d6000803e3d6000fd5b505050506040513d602081101561100157600080fd5b810190808051906020019092919050505073ffffffffffffffffffffffffffffffffffffffff166000809054906101000a900473ffffffffffffffffffffffffffffffffffffffff1673ffffffffffffffffffffffffffffffffffffffff1614151561116857600160009054906101000a900473ffffffffffffffffffffffffffffffffffffffff1673ffffffffffffffffffffffffffffffffffffffff166338cc48316040518163ffffffff167c0100000000000000000000000000000000000000000000000000000000028152600401602060405180830381600087803b1580156110ed57600080fd5b505af1158015611101573d6000803e3d6000fd5b505050506040513d602081101561111757600080fd5b81019080805190602001909291905050506000806101000a81548173ffffffffffffffffffffffffffffffffffffffff021916908373ffffffffffffffffffffffffffffffffffffffff1602179055505b60008060009054906101000a900473ffffffffffffffffffffffffffffffffffffffff1673ffffffffffffffffffffffffffffffffffffffff1663524f3889856040518263ffffffff167c01000000000000000000000000000000000000000000000000000000000281526004018080602001828103825283818151815260200191508051906020019080838360005b838110156112135780820151818401526020810190506111f8565b50505050905090810190601f1680156112405780820380516001836020036101000a031916815260200191505b5092505050602060405180830381600087803b15801561125f57600080fd5b505af1158015611273573d6000803e3d6000fd5b505050506040513d602081101561128957600080fd5b8101908080519060200190929190505050905062030d403a02670de0b6b3a7640000018111156112c057600060010291505061146b565b6000809054906101000a900473ffffffffffffffffffffffffffffffffffffffff1673ffffffffffffffffffffffffffffffffffffffff1663adf59f9982600087876040518563ffffffff167c0100000000000000000000000000000000000000000000000000000000028152600401808481526020018060200180602001838103835285818151815260200191508051906020019080838360005b8381101561137757808201518184015260208101905061135c565b50505050905090810190601f1680156113a45780820380516001836020036101000a031916815260200191505b50838103825284818151815260200191508051906020019080838360005b838110156113dd5780820151818401526020810190506113c2565b50505050905090810190601f16801561140a5780820380516001836020036101000a031916815260200191505b50955050505050506020604051808303818588803b15801561142b57600080fd5b505af115801561143f573d6000803e3d6000fd5b50505050506040513d602081101561145657600080fd5b81019080805190602001909291905050509150505b92915050565b6000813b9050919050565b6000611486611728565b9050919050565b600060608390506000809050600080905060008090505b835181101561170957603084828151811015156114bd57fe5b9060200101517f010000000000000000000000000000000000000000000000000000000000000090047f0100000000000000000000000000000000000000000000000000000000000000027f0100000000000000000000000000000000000000000000000000000000000000900460ff16101580156115bb57506039848281518110151561154757fe5b9060200101517f010000000000000000000000000000000000000000000000000000000000000090047f0100000000000000000000000000000000000000000000000000000000000000027f0100000000000000000000000000000000000000000000000000000000000000900460ff1611155b1561166f5781156115de5760008614156115d457611709565b8580600190039650505b600a83029250603084828151811015156115f457fe5b9060200101517f010000000000000000000000000000000000000000000000000000000000000090047f0100000000000000000000000000000000000000000000000000000000000000027f0100000000000000000000000000000000000000000000000000000000000000900460ff1603830192506116fc565b602e848281518110151561167f57fe5b9060200101517f010000000000000000000000000000000000000000000000000000000000000090047f0100000000000000000000000000000000000000000000000000000000000000027f0100000000000000000000000000000000000000000000000000000000000000900460ff1614156116fb57600191505b5b80806001019150506114a4565b50600085111561171c5784600a0a820291505b81935050505092915050565b600080611748731d3b2638a7cc9f2cb3d298a3da7a90b67e5506ed611471565b11156117ea57731d3b2638a7cc9f2cb3d298a3da7a90b67e5506ed600160006101000a81548173ffffffffffffffffffffffffffffffffffffffff021916908373ffffffffffffffffffffffffffffffffffffffff1602179055506117e16040805190810160405280600b81526020017f6574685f6d61696e6e6574000000000000000000000000000000000000000000815250611bbe565b60019050611bbb565b600061180973c03a2615d5efaf5f49f60b7bb6583eaec212fdf1611471565b11156118ab5773c03a2615d5efaf5f49f60b7bb6583eaec212fdf1600160006101000a81548173ffffffffffffffffffffffffffffffffffffffff021916908373ffffffffffffffffffffffffffffffffffffffff1602179055506118a26040805190810160405280600c81526020017f6574685f726f707374656e330000000000000000000000000000000000000000815250611bbe565b60019050611bbb565b60006118ca73b7a07bcf2ba2f2703b24c0691b5278999c59ac7e611471565b111561196c5773b7a07bcf2ba2f2703b24c0691b5278999c59ac7e600160006101000a81548173ffffffffffffffffffffffffffffffffffffffff021916908373ffffffffffffffffffffffffffffffffffffffff1602179055506119636040805190810160405280600981526020017f6574685f6b6f76616e0000000000000000000000000000000000000000000000815250611bbe565b60019050611bbb565b600061198b73146500cfd35b22e4a392fe0adc06de1a1368ed48611471565b1115611a2d5773146500cfd35b22e4a392fe0adc06de1a1368ed48600160006101000a81548173ffffffffffffffffffffffffffffffffffffffff021916908373ffffffffffffffffffffffffffffffffffffffff160217905550611a246040805190810160405280600b81526020017f6574685f72696e6b656279000000000000000000000000000000000000000000815250611bbe565b60019050611bbb565b6000611a4c736f485c8bf6fc43ea212e93bbf8ce046c7f1cb475611471565b1115611ab057736f485c8bf6fc43ea212e93bbf8ce046c7f1cb475600160006101000a81548173ffffffffffffffffffffffffffffffffffffffff021916908373ffffffffffffffffffffffffffffffffffffffff16021790555060019050611bbb565b6000611acf7320e12a1f859b3feae5fb2a0a32c18f5a65555bbf611471565b1115611b33577320e12a1f859b3feae5fb2a0a32c18f5a65555bbf600160006101000a81548173ffffffffffffffffffffffffffffffffffffffff021916908373ffffffffffffffffffffffffffffffffffffffff16021790555060019050611bbb565b6000611b527351efaf4c8b3c9afbd5ab9f4bbc82784ab6ef8faa611471565b1115611bb6577351efaf4c8b3c9afbd5ab9f4bbc82784ab6ef8faa600160006101000a81548173ffffffffffffffffffffffffffffffffffffffff021916908373ffffffffffffffffffffffffffffffffffffffff16021790555060019050611bbb565b600090505b90565b8060029080519060200190611bd4929190611bd8565b5050565b828054600181600116156101000203166002900490600052602060002090601f016020900481019282601f10611c1957805160ff1916838001178555611c47565b82800160010185558215611c47579182015b82811115611c46578251825591602001919060010190611c2b565b5b509050611c549190611c58565b5090565b611c7a91905b80821115611c76576000816000905550600101611c5e565b5090565b9056fea165627a7a72305820b121d4a2dd5c6c1db9ca9a040ba544fa82e9904a2b393ba3509fb3d97ca6c7710029",
  "source": "pragma solidity ^0.5.0;\n\nimport \"./usingOraclize.sol\";\n\ncontract EcogyOracle is usingOraclize {\n    uint public wattHours;\n    uint rate = 1000 wei;\n    uint earningpershare;\n    \n    \n    event NewOraclizeQuery(string description);\n    event NewWattHours(string wattHours);\n    \n    constructor() public {\n        OAR = OraclizeAddrResolverI(0x6f485C8BF6fc43eA212E93BBF8ce046C7f1cb475);\n        update();\n    }\n    \n    function __callback(bytes32 queryId, string memory result) public {\n        if(msg.sender != oraclize_cbAddress()) revert(\"callback received from incorrect address\");\n        wattHours = parseInt(result);\n        emit NewWattHours(result);\n        earningpershare = rate * wattHours;\n    }\n    \n    function get() public view returns (uint, uint) {\n        return (earningpershare, wattHours);\n    }\n    \n    function update() public payable {\n        if (oraclize_getPrice(\"URL\") > address(this).balance) {\n            emit NewOraclizeQuery(\"Oraclize query was NOT sent, please add some ETH to cover for the query fee\");\n        } else {\n            emit NewOraclizeQuery(\"Oraclize query [update()] was sent, waiting for a response\");\n            oraclize_query(\"URL\", \"json(https://data.solarnetwork.net/solarquery/api/v1/pub/datum/mostRecent?nodeId=338).data.results[0].wattHours\");\n        }\n    }\n}",
  "sourcePath": "/home/kartikey/Documents/EcogyDapp/contracts/EcogyOracle.sol",
  "compiler": {
    "name": "solc",
    "version": "0.5.0+commit.1d4f565a.Emscripten.clang"
  },
  "schemaVersion": "3.0.2",
  "updatedAt": "2019-03-01T01:16:34.523Z",
  "devdoc": {
    "methods": {}
  },
  "userdoc": {
    "methods": {}
  }
}