{
  "contractName": "Ecogy",
  "abi": [
    {
      "constant": false,
      "inputs": [
        {
          "name": "queryId",
          "type": "bytes32"
        },
        {
          "name": "result",
          "type": "string"
        }
      ],
      "name": "__callback",
      "outputs": [],
      "payable": false,
      "stateMutability": "nonpayable",
      "type": "function",
      "signature": "0x27dc297e"
    },
    {
      "constant": false,
      "inputs": [
        {
          "name": "_myid",
          "type": "bytes32"
        },
        {
          "name": "_result",
          "type": "string"
        },
        {
          "name": "_proof",
          "type": "bytes"
        }
      ],
      "name": "__callback",
      "outputs": [],
      "payable": false,
      "stateMutability": "nonpayable",
      "type": "function",
      "signature": "0x38bbfa50"
    },
    {
      "constant": true,
      "inputs": [],
      "name": "wattHours",
      "outputs": [
        {
          "name": "",
          "type": "uint256"
        }
      ],
      "payable": false,
      "stateMutability": "view",
      "type": "function",
      "signature": "0x476982c9"
    },
    {
      "constant": true,
      "inputs": [
        {
          "name": "",
          "type": "uint256"
        }
      ],
      "name": "projectList",
      "outputs": [
        {
          "name": "",
          "type": "uint256"
        }
      ],
      "payable": false,
      "stateMutability": "view",
      "type": "function",
      "signature": "0x60570b2e"
    },
    {
      "constant": true,
      "inputs": [
        {
          "name": "",
          "type": "address"
        }
      ],
      "name": "investorMap",
      "outputs": [
        {
          "name": "hasInvested",
          "type": "bool"
        },
        {
          "name": "shareBalance",
          "type": "uint256"
        }
      ],
      "payable": false,
      "stateMutability": "view",
      "type": "function",
      "signature": "0x634ce668"
    },
    {
      "constant": true,
      "inputs": [
        {
          "name": "",
          "type": "address"
        }
      ],
      "name": "pendingROI",
      "outputs": [
        {
          "name": "",
          "type": "uint256"
        }
      ],
      "payable": false,
      "stateMutability": "view",
      "type": "function",
      "signature": "0x6661e316"
    },
    {
      "constant": true,
      "inputs": [],
      "name": "get",
      "outputs": [
        {
          "name": "",
          "type": "uint256"
        },
        {
          "name": "",
          "type": "uint256"
        }
      ],
      "payable": false,
      "stateMutability": "view",
      "type": "function",
      "signature": "0x6d4ce63c"
    },
    {
      "constant": true,
      "inputs": [],
      "name": "ecogy",
      "outputs": [
        {
          "name": "",
          "type": "address"
        }
      ],
      "payable": false,
      "stateMutability": "view",
      "type": "function",
      "signature": "0x89f78b8b"
    },
    {
      "constant": false,
      "inputs": [],
      "name": "update",
      "outputs": [],
      "payable": true,
      "stateMutability": "payable",
      "type": "function",
      "signature": "0xa2e62045"
    },
    {
      "constant": true,
      "inputs": [
        {
          "name": "",
          "type": "uint256"
        }
      ],
      "name": "projectMap",
      "outputs": [
        {
          "name": "projectId",
          "type": "uint256"
        },
        {
          "name": "available",
          "type": "bool"
        },
        {
          "name": "price",
          "type": "uint256"
        },
        {
          "name": "availableShares",
          "type": "uint256"
        }
      ],
      "payable": false,
      "stateMutability": "view",
      "type": "function",
      "signature": "0xf30b2101"
    },
    {
      "constant": true,
      "inputs": [
        {
          "name": "",
          "type": "address"
        }
      ],
      "name": "pendingWithdrawals",
      "outputs": [
        {
          "name": "",
          "type": "uint256"
        }
      ],
      "payable": false,
      "stateMutability": "view",
      "type": "function",
      "signature": "0xf3f43703"
    },
    {
      "inputs": [],
      "payable": true,
      "stateMutability": "payable",
      "type": "constructor",
      "signature": "constructor"
    },
    {
      "anonymous": false,
      "inputs": [
        {
          "indexed": false,
          "name": "id",
          "type": "uint256"
        }
      ],
      "name": "ProjectCreated",
      "type": "event",
      "signature": "0x1ac2092e16e28eef29d1832f3dc69da1b21284a1f3159d3b26cb238b22fe4f8a"
    },
    {
      "anonymous": false,
      "inputs": [
        {
          "indexed": false,
          "name": "id",
          "type": "uint256"
        },
        {
          "indexed": false,
          "name": "numShares",
          "type": "uint256"
        }
      ],
      "name": "InvestmentMade",
      "type": "event",
      "signature": "0x57d932e8a875ad250d21d464af7676d96fa8c0e638f51dd20d9fd6768f4e6392"
    },
    {
      "anonymous": false,
      "inputs": [],
      "name": "ProjectFull",
      "type": "event",
      "signature": "0x252b8d41eea93dae4385344c1383ff3587c28e4e07d32c55c9dceeafc1a723db"
    },
    {
      "anonymous": false,
      "inputs": [
        {
          "indexed": false,
          "name": "description",
          "type": "string"
        }
      ],
      "name": "NewOraclizeQuery",
      "type": "event",
      "signature": "0x096835e36c2ccea88ff2b3aca87dfc938b977e52ea656873ff76a8dba50d4d34"
    },
    {
      "anonymous": false,
      "inputs": [
        {
          "indexed": false,
          "name": "wattHours",
          "type": "string"
        }
      ],
      "name": "NewWattHours",
      "type": "event",
      "signature": "0xbd6260690bc2f4f8182639d96bcf82b62fb91db59e787d64a8107a96586ff867"
    },
    {
      "constant": false,
      "inputs": [
        {
          "name": "_projectId",
          "type": "uint256"
        },
        {
          "name": "numShares",
          "type": "uint256"
        }
      ],
      "name": "invest",
      "outputs": [],
      "payable": true,
      "stateMutability": "payable",
      "type": "function",
      "signature": "0xd87aa643"
    },
    {
      "constant": false,
      "inputs": [
        {
          "name": "_projectId",
          "type": "uint256"
        },
        {
          "name": "_price",
          "type": "uint256"
        }
      ],
      "name": "createProject",
      "outputs": [],
      "payable": false,
      "stateMutability": "nonpayable",
      "type": "function",
      "signature": "0x02da667b"
    },
    {
      "constant": false,
      "inputs": [
        {
          "name": "_id",
          "type": "uint256"
        }
      ],
      "name": "deleteProject",
      "outputs": [],
      "payable": true,
      "stateMutability": "payable",
      "type": "function",
      "signature": "0x4cd0cb28"
    },
    {
      "constant": false,
      "inputs": [
        {
          "name": "_projectId",
          "type": "uint256"
        }
      ],
      "name": "sellShares",
      "outputs": [],
      "payable": false,
      "stateMutability": "nonpayable",
      "type": "function",
      "signature": "0x4ba8ae81"
    },
    {
      "constant": false,
      "inputs": [
        {
          "name": "_projectId",
          "type": "uint256"
        }
      ],
      "name": "calculateReturn",
      "outputs": [
        {
          "name": "",
          "type": "uint256"
        }
      ],
      "payable": false,
      "stateMutability": "nonpayable",
      "type": "function",
      "signature": "0x495e44b2"
    },
    {
      "constant": false,
      "inputs": [
        {
          "name": "_shareholder",
          "type": "address"
        }
      ],
      "name": "sendROI",
      "outputs": [],
      "payable": true,
      "stateMutability": "payable",
      "type": "function",
      "signature": "0x2417d3a1"
    },
    {
      "constant": true,
      "inputs": [],
      "name": "getProjectList",
      "outputs": [
        {
          "name": "",
          "type": "uint256[]"
        }
      ],
      "payable": false,
      "stateMutability": "view",
      "type": "function",
      "signature": "0x5880ef34"
    },
    {
      "constant": true,
      "inputs": [
        {
          "name": "id",
          "type": "uint256"
        }
      ],
      "name": "getProject",
      "outputs": [
        {
          "name": "",
          "type": "uint256"
        },
        {
          "name": "",
          "type": "bool"
        },
        {
          "name": "",
          "type": "uint256"
        },
        {
          "name": "",
          "type": "address[]"
        },
        {
          "name": "",
          "type": "uint256[]"
        },
        {
          "name": "",
          "type": "uint256"
        }
      ],
      "payable": false,
      "stateMutability": "view",
      "type": "function",
      "signature": "0xf0f3f2c8"
    },
    {
      "constant": true,
      "inputs": [],
      "name": "getInvestor",
      "outputs": [
        {
          "name": "",
          "type": "bool"
        },
        {
          "name": "",
          "type": "uint256[]"
        },
        {
          "name": "",
          "type": "uint256[]"
        },
        {
          "name": "",
          "type": "uint256"
        }
      ],
      "payable": false,
      "stateMutability": "view",
      "type": "function",
      "signature": "0x796c8902"
    },
    {
      "constant": true,
      "inputs": [],
      "name": "contractBalance",
      "outputs": [
        {
          "name": "",
          "type": "uint256"
        }
      ],
      "payable": false,
      "stateMutability": "view",
      "type": "function",
      "signature": "0x8b7afe2e"
    }
  ],
  "bytecode": "0x60806040526103e86006556000600f556200002862000184640100000000026401000000009004565b33600860006101000a81548173ffffffffffffffffffffffffffffffffffffffff021916908373ffffffffffffffffffffffffffffffffffffffff1602179055506000600a600080815260200190815260200160002090506000816000018190555060018160010160006101000a81548160ff0219169083151502179055506702c68af0bb1400008160020181905550606481600501819055506009816000015490806001815401808255809150509060018203906000526020600020016000909192909190915055506000600a60006001815260200190815260200160002090506001816000018190555060018160010160006101000a81548160ff02191690831515021790555067016345785d8a000081600201819055506064816005018190555060098160000154908060018154018082558091505090600182039060005260206000200160009091929091909150555050506200149a565b3073ffffffffffffffffffffffffffffffffffffffff1631620001eb6040805190810160405280600381526020017f55524c000000000000000000000000000000000000000000000000000000000081525062000436640100000000026401000000009004565b1115620002ac577f096835e36c2ccea88ff2b3aca87dfc938b977e52ea656873ff76a8dba50d4d3460405180806020018281038252604b8152602001807f4f7261636c697a6520717565727920776173204e4f542073656e742c20706c6581526020017f6173652061646420736f6d652045544820746f20636f76657220666f7220746881526020017f652071756572792066656500000000000000000000000000000000000000000081525060600191505060405180910390a162000434565b7f096835e36c2ccea88ff2b3aca87dfc938b977e52ea656873ff76a8dba50d4d3460405180806020018281038252602f8152602001807f4f7261636c697a65207175657279207761732073656e742c2077616974696e6781526020017f20666f72206120726573706f6e7365000000000000000000000000000000000081525060400191505060405180910390a1620004326040805190810160405280600381526020017f55524c000000000000000000000000000000000000000000000000000000000081525060a060405190810160405280606f81526020017f6a736f6e2868747470733a2f2f646174612e736f6c61726e6574776f726b2e6e81526020017f65742f736f6c617271756572792f6170692f76312f7075622f646174756d2f6d81526020017f6f7374526563656e743f6e6f646549643d333338292e646174612e726573756c81526020017f74735b305d2e77617474486f75727300000000000000000000000000000000008152506200084e640100000000026401000000009004565b505b565b60008073ffffffffffffffffffffffffffffffffffffffff16600160009054906101000a900473ffffffffffffffffffffffffffffffffffffffff1673ffffffffffffffffffffffffffffffffffffffff161480620004d057506000620004ce600160009054906101000a900473ffffffffffffffffffffffffffffffffffffffff1662000e43640100000000026401000000009004565b145b15620004f357620004f1600062000e4e640100000000026401000000009004565b505b600160009054906101000a900473ffffffffffffffffffffffffffffffffffffffff1673ffffffffffffffffffffffffffffffffffffffff166338cc48316040518163ffffffff167c0100000000000000000000000000000000000000000000000000000000028152600401602060405180830381600087803b1580156200057a57600080fd5b505af11580156200058f573d6000803e3d6000fd5b505050506040513d6020811015620005a657600080fd5b810190808051906020019092919050505073ffffffffffffffffffffffffffffffffffffffff166000809054906101000a900473ffffffffffffffffffffffffffffffffffffffff1673ffffffffffffffffffffffffffffffffffffffff161415156200071157600160009054906101000a900473ffffffffffffffffffffffffffffffffffffffff1673ffffffffffffffffffffffffffffffffffffffff166338cc48316040518163ffffffff167c0100000000000000000000000000000000000000000000000000000000028152600401602060405180830381600087803b1580156200069457600080fd5b505af1158015620006a9573d6000803e3d6000fd5b505050506040513d6020811015620006c057600080fd5b81019080805190602001909291905050506000806101000a81548173ffffffffffffffffffffffffffffffffffffffff021916908373ffffffffffffffffffffffffffffffffffffffff1602179055505b6000809054906101000a900473ffffffffffffffffffffffffffffffffffffffff1673ffffffffffffffffffffffffffffffffffffffff1663524f3889836040518263ffffffff167c01000000000000000000000000000000000000000000000000000000000281526004018080602001828103825283818151815260200191508051906020019080838360005b83811015620007bc5780820151818401526020810190506200079f565b50505050905090810190601f168015620007ea5780820380516001836020036101000a031916815260200191505b5092505050602060405180830381600087803b1580156200080a57600080fd5b505af11580156200081f573d6000803e3d6000fd5b505050506040513d60208110156200083657600080fd5b81019080805190602001909291905050509050919050565b60008073ffffffffffffffffffffffffffffffffffffffff16600160009054906101000a900473ffffffffffffffffffffffffffffffffffffffff1673ffffffffffffffffffffffffffffffffffffffff161480620008e857506000620008e6600160009054906101000a900473ffffffffffffffffffffffffffffffffffffffff1662000e43640100000000026401000000009004565b145b156200090b5762000909600062000e4e640100000000026401000000009004565b505b600160009054906101000a900473ffffffffffffffffffffffffffffffffffffffff1673ffffffffffffffffffffffffffffffffffffffff166338cc48316040518163ffffffff167c0100000000000000000000000000000000000000000000000000000000028152600401602060405180830381600087803b1580156200099257600080fd5b505af1158015620009a7573d6000803e3d6000fd5b505050506040513d6020811015620009be57600080fd5b810190808051906020019092919050505073ffffffffffffffffffffffffffffffffffffffff166000809054906101000a900473ffffffffffffffffffffffffffffffffffffffff1673ffffffffffffffffffffffffffffffffffffffff1614151562000b2957600160009054906101000a900473ffffffffffffffffffffffffffffffffffffffff1673ffffffffffffffffffffffffffffffffffffffff166338cc48316040518163ffffffff167c0100000000000000000000000000000000000000000000000000000000028152600401602060405180830381600087803b15801562000aac57600080fd5b505af115801562000ac1573d6000803e3d6000fd5b505050506040513d602081101562000ad857600080fd5b81019080805190602001909291905050506000806101000a81548173ffffffffffffffffffffffffffffffffffffffff021916908373ffffffffffffffffffffffffffffffffffffffff1602179055505b60008060009054906101000a900473ffffffffffffffffffffffffffffffffffffffff1673ffffffffffffffffffffffffffffffffffffffff1663524f3889856040518263ffffffff167c01000000000000000000000000000000000000000000000000000000000281526004018080602001828103825283818151815260200191508051906020019080838360005b8381101562000bd657808201518184015260208101905062000bb9565b50505050905090810190601f16801562000c045780820380516001836020036101000a031916815260200191505b5092505050602060405180830381600087803b15801562000c2457600080fd5b505af115801562000c39573d6000803e3d6000fd5b505050506040513d602081101562000c5057600080fd5b8101908080519060200190929190505050905062030d403a02670de0b6b3a76400000181111562000c8957600060010291505062000e3d565b6000809054906101000a900473ffffffffffffffffffffffffffffffffffffffff1673ffffffffffffffffffffffffffffffffffffffff1663adf59f9982600087876040518563ffffffff167c0100000000000000000000000000000000000000000000000000000000028152600401808481526020018060200180602001838103835285818151815260200191508051906020019080838360005b8381101562000d4257808201518184015260208101905062000d25565b50505050905090810190601f16801562000d705780820380516001836020036101000a031916815260200191505b50838103825284818151815260200191508051906020019080838360005b8381101562000dab57808201518184015260208101905062000d8e565b50505050905090810190601f16801562000dd95780820380516001836020036101000a031916815260200191505b50955050505050506020604051808303818588803b15801562000dfb57600080fd5b505af115801562000e10573d6000803e3d6000fd5b50505050506040513d602081101562000e2857600080fd5b81019080805190602001909291905050509150505b92915050565b6000813b9050919050565b600062000e6962000e70640100000000026401000000009004565b9050919050565b60008062000ea1731d3b2638a7cc9f2cb3d298a3da7a90b67e5506ed62000e43640100000000026401000000009004565b111562000f5657731d3b2638a7cc9f2cb3d298a3da7a90b67e5506ed600160006101000a81548173ffffffffffffffffffffffffffffffffffffffff021916908373ffffffffffffffffffffffffffffffffffffffff16021790555062000f4c6040805190810160405280600b81526020017f6574685f6d61696e6e6574000000000000000000000000000000000000000000815250620013cf640100000000026401000000009004565b60019050620013cc565b600062000f8673c03a2615d5efaf5f49f60b7bb6583eaec212fdf162000e43640100000000026401000000009004565b11156200103b5773c03a2615d5efaf5f49f60b7bb6583eaec212fdf1600160006101000a81548173ffffffffffffffffffffffffffffffffffffffff021916908373ffffffffffffffffffffffffffffffffffffffff160217905550620010316040805190810160405280600c81526020017f6574685f726f707374656e330000000000000000000000000000000000000000815250620013cf640100000000026401000000009004565b60019050620013cc565b60006200106b73b7a07bcf2ba2f2703b24c0691b5278999c59ac7e62000e43640100000000026401000000009004565b1115620011205773b7a07bcf2ba2f2703b24c0691b5278999c59ac7e600160006101000a81548173ffffffffffffffffffffffffffffffffffffffff021916908373ffffffffffffffffffffffffffffffffffffffff160217905550620011166040805190810160405280600981526020017f6574685f6b6f76616e0000000000000000000000000000000000000000000000815250620013cf640100000000026401000000009004565b60019050620013cc565b60006200115073146500cfd35b22e4a392fe0adc06de1a1368ed4862000e43640100000000026401000000009004565b1115620012055773146500cfd35b22e4a392fe0adc06de1a1368ed48600160006101000a81548173ffffffffffffffffffffffffffffffffffffffff021916908373ffffffffffffffffffffffffffffffffffffffff160217905550620011fb6040805190810160405280600b81526020017f6574685f72696e6b656279000000000000000000000000000000000000000000815250620013cf640100000000026401000000009004565b60019050620013cc565b600062001235736f485c8bf6fc43ea212e93bbf8ce046c7f1cb47562000e43640100000000026401000000009004565b11156200129b57736f485c8bf6fc43ea212e93bbf8ce046c7f1cb475600160006101000a81548173ffffffffffffffffffffffffffffffffffffffff021916908373ffffffffffffffffffffffffffffffffffffffff16021790555060019050620013cc565b6000620012cb7320e12a1f859b3feae5fb2a0a32c18f5a65555bbf62000e43640100000000026401000000009004565b111562001331577320e12a1f859b3feae5fb2a0a32c18f5a65555bbf600160006101000a81548173ffffffffffffffffffffffffffffffffffffffff021916908373ffffffffffffffffffffffffffffffffffffffff16021790555060019050620013cc565b6000620013617351efaf4c8b3c9afbd5ab9f4bbc82784ab6ef8faa62000e43640100000000026401000000009004565b1115620013c7577351efaf4c8b3c9afbd5ab9f4bbc82784ab6ef8faa600160006101000a81548173ffffffffffffffffffffffffffffffffffffffff021916908373ffffffffffffffffffffffffffffffffffffffff16021790555060019050620013cc565b600090505b90565b8060029080519060200190620013e7929190620013eb565b5050565b828054600181600116156101000203166002900490600052602060002090601f016020900481019282601f106200142e57805160ff19168380011785556200145f565b828001600101855582156200145f579182015b828111156200145e57825182559160200191906001019062001441565b5b5090506200146e919062001472565b5090565b6200149791905b808211156200149357600081600090555060010162001479565b5090565b90565b61430a80620014aa6000396000f3fe60806040526004361061011d576000357c0100000000000000000000000000000000000000000000000000000000900463ffffffff16806302da667b146101225780632417d3a11461016757806327dc297e146101ab57806338bbfa501461027d578063476982c9146103e6578063495e44b2146104115780634ba8ae81146104605780634cd0cb281461049b5780635880ef34146104c957806360570b2e14610535578063634ce668146105845780636661e316146105f45780636d4ce63c14610659578063796c89021461068b57806389f78b8b146107515780638b7afe2e146107a8578063a2e62045146107d3578063d87aa643146107dd578063f0f3f2c814610815578063f30b21011461090d578063f3f4370314610975575b600080fd5b34801561012e57600080fd5b506101656004803603604081101561014557600080fd5b8101908080359060200190929190803590602001909291905050506109da565b005b6101a96004803603602081101561017d57600080fd5b81019080803573ffffffffffffffffffffffffffffffffffffffff169060200190929190505050610cca565b005b3480156101b757600080fd5b5061027b600480360360408110156101ce57600080fd5b8101908080359060200190929190803590602001906401000000008111156101f557600080fd5b82018360208201111561020757600080fd5b8035906020019184600183028401116401000000008311171561022957600080fd5b91908080601f016020809104026020016040519081016040528093929190818152602001838380828437600081840152601f19601f820116905080830192505050505050509192919290505050610e65565b005b34801561028957600080fd5b506103e4600480360360608110156102a057600080fd5b8101908080359060200190929190803590602001906401000000008111156102c757600080fd5b8201836020820111156102d957600080fd5b803590602001918460018302840111640100000000831117156102fb57600080fd5b91908080601f016020809104026020016040519081016040528093929190818152602001838380828437600081840152601f19601f8201169050808301925050505050505091929192908035906020019064010000000081111561035e57600080fd5b82018360208201111561037057600080fd5b8035906020019184600183028401116401000000008311171561039257600080fd5b91908080601f016020809104026020016040519081016040528093929190818152602001838380828437600081840152601f19601f820116905080830192505050505050509192919290505050610ff1565b005b3480156103f257600080fd5b506103fb610ff6565b6040518082815260200191505060405180910390f35b34801561041d57600080fd5b5061044a6004803603602081101561043457600080fd5b8101908080359060200190929190505050610ffc565b6040518082815260200191505060405180910390f35b34801561046c57600080fd5b506104996004803603602081101561048357600080fd5b8101908080359060200190929190505050611242565b005b6104c7600480360360208110156104b157600080fd5b810190808035906020019092919050505061129b565b005b3480156104d557600080fd5b506104de6114e2565b6040518080602001828103825283818151815260200191508051906020019060200280838360005b83811015610521578082015181840152602081019050610506565b505050509050019250505060405180910390f35b34801561054157600080fd5b5061056e6004803603602081101561055857600080fd5b810190808035906020019092919050505061153a565b6040518082815260200191505060405180910390f35b34801561059057600080fd5b506105d3600480360360208110156105a757600080fd5b81019080803573ffffffffffffffffffffffffffffffffffffffff16906020019092919050505061155d565b60405180831515151581526020018281526020019250505060405180910390f35b34801561060057600080fd5b506106436004803603602081101561061757600080fd5b81019080803573ffffffffffffffffffffffffffffffffffffffff16906020019092919050505061158e565b6040518082815260200191505060405180910390f35b34801561066557600080fd5b5061066e6115a6565b604051808381526020018281526020019250505060405180910390f35b34801561069757600080fd5b506106a06115b7565b60405180851515151581526020018060200180602001848152602001838103835286818151815260200191508051906020019060200280838360005b838110156106f75780820151818401526020810190506106dc565b50505050905001838103825285818151815260200191508051906020019060200280838360005b8381101561073957808201518184015260208101905061071e565b50505050905001965050505050505060405180910390f35b34801561075d57600080fd5b50610766611787565b604051808273ffffffffffffffffffffffffffffffffffffffff1673ffffffffffffffffffffffffffffffffffffffff16815260200191505060405180910390f35b3480156107b457600080fd5b506107bd6117ad565b6040518082815260200191505060405180910390f35b6107db6117cc565b005b610813600480360360408110156107f357600080fd5b810190808035906020019092919080359060200190929190505050611a5a565b005b34801561082157600080fd5b5061084e6004803603602081101561083857600080fd5b8101908080359060200190929190505050612342565b60405180878152602001861515151581526020018581526020018060200180602001848152602001838103835286818151815260200191508051906020019060200280838360005b838110156108b1578082015181840152602081019050610896565b50505050905001838103825285818151815260200191508051906020019060200280838360005b838110156108f35780820151818401526020810190506108d8565b505050509050019850505050505050505060405180910390f35b34801561091957600080fd5b506109466004803603602081101561093057600080fd5b810190808035906020019092919050505061258e565b604051808581526020018415151515815260200183815260200182815260200194505050505060405180910390f35b34801561098157600080fd5b506109c46004803603602081101561099857600080fd5b81019080803573ffffffffffffffffffffffffffffffffffffffff1690602001909291905050506125cb565b6040518082815260200191505060405180910390f35b600860009054906101000a900473ffffffffffffffffffffffffffffffffffffffff1673ffffffffffffffffffffffffffffffffffffffff163373ffffffffffffffffffffffffffffffffffffffff16141515610a9f576040517f08c379a00000000000000000000000000000000000000000000000000000000081526004018080602001828103825260208152602001807f4f6e6c792045636f677920456e657267792063616e2063616c6c20746869732e81525060200191505060405180910390fd5b60008110151515610b18576040517f08c379a000000000000000000000000000000000000000000000000000000000815260040180806020018281038252601c8152602001807f43616e6e6f7420686176652061206e656761746976652070726963650000000081525060200191505060405180910390fd5b600a600083815260200190815260200160002060010160009054906101000a900460ff16151515610bd7576040517f08c379a00000000000000000000000000000000000000000000000000000000081526004018080602001828103825260238152602001807f70726f6a6563742077697468207468617420696420616c72656164792065786981526020017f737473000000000000000000000000000000000000000000000000000000000081525060400191505060405180910390fd5b6000600a6000848152602001908152602001600020905060608084836000018190555060018360010160006101000a81548160ff02191690831515021790555083836002018190555081836003019080519060200190610c389291906140cd565b5080836004019080519060200190610c51929190614157565b50606483600501819055506009836000015490806001815401808255809150509060018203906000526020600020016000909192909190915055507f1ac2092e16e28eef29d1832f3dc69da1b21284a1f3159d3b26cb238b22fe4f8a856040518082815260200191505060405180910390a15050505050565b600860009054906101000a900473ffffffffffffffffffffffffffffffffffffffff1673ffffffffffffffffffffffffffffffffffffffff163373ffffffffffffffffffffffffffffffffffffffff16141515610d8f576040517f08c379a00000000000000000000000000000000000000000000000000000000081526004018080602001828103825260208152602001807f4f6e6c792045636f677920456e657267792063616e2063616c6c20746869732e81525060200191505060405180910390fd5b600080600e60008473ffffffffffffffffffffffffffffffffffffffff1673ffffffffffffffffffffffffffffffffffffffff168152602001908152602001600020819055506000600e60008473ffffffffffffffffffffffffffffffffffffffff1673ffffffffffffffffffffffffffffffffffffffff168152602001908152602001600020819055508173ffffffffffffffffffffffffffffffffffffffff166108fc829081150290604051600060405180830381858888f19350505050158015610e60573d6000803e3d6000fd5b505050565b610e6d6125e3565b73ffffffffffffffffffffffffffffffffffffffff163373ffffffffffffffffffffffffffffffffffffffff16141515610f35576040517f08c379a00000000000000000000000000000000000000000000000000000000081526004018080602001828103825260288152602001807f63616c6c6261636b2072656365697665642066726f6d20696e636f727265637481526020017f206164647265737300000000000000000000000000000000000000000000000081525060400191505060405180910390fd5b610f3e81612956565b6005819055507fbd6260690bc2f4f8182639d96bcf82b62fb91db59e787d64a8107a96586ff867816040518080602001828103825283818151815260200191508051906020019080838360005b83811015610fa6578082015181840152602081019050610f8b565b50505050905090810190601f168015610fd35780820380516001836020036101000a031916815260200191505b509250505060405180910390a1600554600654026007819055505050565b505050565b60055481565b60006224ea00600f5442031115156110a2576040517f08c379a00000000000000000000000000000000000000000000000000000000081526004018080602001828103825260258152602001807f526f4920616c72656164792063616c63756c6174656420666f7220746869732081526020017f6d6f6e746800000000000000000000000000000000000000000000000000000081525060400191505060405180910390fd5b600061113e83600b60003373ffffffffffffffffffffffffffffffffffffffff1673ffffffffffffffffffffffffffffffffffffffff16815260200190815260200160002060010180548060200260200160405190810160405280929190818152602001828054801561113457602002820191906000526020600020905b815481526020019060010190808311611120575b505050505061296a565b90506000600b60003373ffffffffffffffffffffffffffffffffffffffff1673ffffffffffffffffffffffffffffffffffffffff1681526020019081526020016000206002018281548110151561119157fe5b906000526020600020015490506111b381600754612a3090919063ffffffff16565b600e60003373ffffffffffffffffffffffffffffffffffffffff1673ffffffffffffffffffffffffffffffffffffffff16815260200190815260200160002060008282540192505081905550600061121682600754612a3090919063ffffffff16565b11156112245742600f819055505b61123981600754612a3090919063ffffffff16565b92505050919050565b600033905060008290506112568183612a6e565b7f57d932e8a875ad250d21d464af7676d96fa8c0e638f51dd20d9fd6768f4e6392836000604051808381526020018281526020019250505060405180910390a1505050565b600860009054906101000a900473ffffffffffffffffffffffffffffffffffffffff1673ffffffffffffffffffffffffffffffffffffffff163373ffffffffffffffffffffffffffffffffffffffff16141515611360576040517f08c379a00000000000000000000000000000000000000000000000000000000081526004018080602001828103825260208152602001807f4f6e6c792045636f677920456e657267792063616e2063616c6c20746869732e81525060200191505060405180910390fd5b600a600082815260200190815260200160002060010160009054906101000a900460ff16151561141e576040517f08c379a00000000000000000000000000000000000000000000000000000000081526004018080602001828103825260238152602001807f70726f6a6563742077697468207468617420696420646f6573206e6f7420657881526020017f697374000000000000000000000000000000000000000000000000000000000081525060400191505060405180910390fd5b60008090505b600a6000838152602001908152602001600020600301805490508110156114af576000600a60008481526020019081526020016000206003018281548110151561146a57fe5b9060005260206000200160009054906101000a900473ffffffffffffffffffffffffffffffffffffffff1690506114a18382612a6e565b508080600101915050611424565b506000600a600083815260200190815260200160002060010160006101000a81548160ff02191690831515021790555050565b6060600980548060200260200160405190810160405280929190818152602001828054801561153057602002820191906000526020600020905b81548152602001906001019080831161151c575b5050505050905090565b60098181548110151561154957fe5b906000526020600020016000915090505481565b600b6020528060005260406000206000915090508060000160009054906101000a900460ff16908060030154905082565b600e6020528060005260406000206000915090505481565b600080600754600554915091509091565b60006060806000600b60003373ffffffffffffffffffffffffffffffffffffffff1673ffffffffffffffffffffffffffffffffffffffff16815260200190815260200160002060000160009054906101000a900460ff16600b60003373ffffffffffffffffffffffffffffffffffffffff1673ffffffffffffffffffffffffffffffffffffffff168152602001908152602001600020600101600b60003373ffffffffffffffffffffffffffffffffffffffff1673ffffffffffffffffffffffffffffffffffffffff168152602001908152602001600020600201600b60003373ffffffffffffffffffffffffffffffffffffffff1673ffffffffffffffffffffffffffffffffffffffff168152602001908152602001600020600301548280548060200260200160405190810160405280929190818152602001828054801561172057602002820191906000526020600020905b81548152602001906001019080831161170c575b505050505092508180548060200260200160405190810160405280929190818152602001828054801561177257602002820191906000526020600020905b81548152602001906001019080831161175e575b50505050509150935093509350935090919293565b600860009054906101000a900473ffffffffffffffffffffffffffffffffffffffff1681565b60003073ffffffffffffffffffffffffffffffffffffffff1631905090565b3073ffffffffffffffffffffffffffffffffffffffff16316118226040805190810160405280600381526020017f55524c0000000000000000000000000000000000000000000000000000000000815250612e91565b11156118e1577f096835e36c2ccea88ff2b3aca87dfc938b977e52ea656873ff76a8dba50d4d3460405180806020018281038252604b8152602001807f4f7261636c697a6520717565727920776173204e4f542073656e742c20706c6581526020017f6173652061646420736f6d652045544820746f20636f76657220666f7220746881526020017f652071756572792066656500000000000000000000000000000000000000000081525060600191505060405180910390a1611a58565b7f096835e36c2ccea88ff2b3aca87dfc938b977e52ea656873ff76a8dba50d4d3460405180806020018281038252602f8152602001807f4f7261636c697a65207175657279207761732073656e742c2077616974696e6781526020017f20666f72206120726573706f6e7365000000000000000000000000000000000081525060400191505060405180910390a1611a566040805190810160405280600381526020017f55524c000000000000000000000000000000000000000000000000000000000081525060a060405190810160405280606f81526020017f6a736f6e2868747470733a2f2f646174612e736f6c61726e6574776f726b2e6e81526020017f65742f736f6c617271756572792f6170692f76312f7075622f646174756d2f6d81526020017f6f7374526563656e743f6e6f646549643d333338292e646174612e726573756c81526020017f74735b305d2e77617474486f7572730000000000000000000000000000000000815250613278565b505b565b611a8381600a600085815260200190815260200160002060020154612a3090919063ffffffff16565b34141515611b1f576040517f08c379a00000000000000000000000000000000000000000000000000000000081526004018080602001828103825260228152602001807f6174746163682074686520636f727265637420616d6f756e74206f662065746881526020017f657200000000000000000000000000000000000000000000000000000000000081525060400191505060405180910390fd5b600a600083815260200190815260200160002060010160009054906101000a900460ff161515611bdd576040517f08c379a00000000000000000000000000000000000000000000000000000000081526004018080602001828103825260328152602001807f70726f6a65637420776974682074686174206964206973206e6f74206176616981526020017f6c61626c6520746f20696e7665737420696e000000000000000000000000000081525060400191505060405180910390fd5b80600a60008481526020019081526020016000206005015410158015611c035750600081115b1515611c9d576040517f08c379a00000000000000000000000000000000000000000000000000000000081526004018080602001828103825260308152602001807f70726f6a65637420646f6573206e6f7420686176652074686174206d616e792081526020017f73686172657320617661696c61626c650000000000000000000000000000000081525060400191505060405180910390fd5b600b60003373ffffffffffffffffffffffffffffffffffffffff1673ffffffffffffffffffffffffffffffffffffffff16815260200190815260200160002060000160009054906101000a900460ff161515611f0e576000600b60003373ffffffffffffffffffffffffffffffffffffffff1673ffffffffffffffffffffffffffffffffffffffff1681526020019081526020016000209050600c81908060018154018082558091505090600182039060005260206000209060040201600090919290919091506000820160009054906101000a900460ff168160000160006101000a81548160ff0219169083151502179055506001820181600101908054611da79291906141a4565b506002820181600201908054611dbe9291906141a4565b5060038201548160030155505050806001018390806001815401808255809150509060018203906000526020600020016000909192909190915055508060020182908060018154018082558091505090600182039060005260206000200160009091929091909150555060018160000160006101000a81548160ff021916908315150217905550818160030181905550600a60008481526020019081526020016000206003013390806001815401808255809150509060018203906000526020600020016000909192909190916101000a81548173ffffffffffffffffffffffffffffffffffffffff021916908373ffffffffffffffffffffffffffffffffffffffff16021790555050600a60008481526020019081526020016000206004018290806001815401808255809150509060018203906000526020600020016000909192909190915055505061226f565b6000600b60003373ffffffffffffffffffffffffffffffffffffffff1673ffffffffffffffffffffffffffffffffffffffff1681526020019081526020016000209050600081600101805490509050600080905060008090505b81158015611f7557508281105b15611faf578360010181815481101515611f8b57fe5b9060005260206000200154861415611fa257600191505b8080600101915050611f68565b811561213457611fcc85856003015461383190919063ffffffff16565b8460030181905550612005858560020160018403815481101515611fec57fe5b906000526020600020015461383190919063ffffffff16565b846002016001830381548110151561201957fe5b9060005260206000200181905550600a600087815260200190815260200160002060030180549050925060009050600091505b8115801561205957508281105b156120f1573373ffffffffffffffffffffffffffffffffffffffff16600a60008881526020019081526020016000206003018281548110151561209857fe5b9060005260206000200160009054906101000a900473ffffffffffffffffffffffffffffffffffffffff1673ffffffffffffffffffffffffffffffffffffffff1614156120e457600191505b808060010191505061204c565b84600a60008881526020019081526020016000206004016001830381548110151561211857fe5b906000526020600020016000828254019250508190555061226a565b83600101869080600181540180825580915050906001820390600052602060002001600090919290919091505550836002018590806001815401808255809150509060018203906000526020600020016000909192909190915055506121a785856003015461383190919063ffffffff16565b8460030181905550600a60008781526020019081526020016000206003013390806001815401808255809150509060018203906000526020600020016000909192909190916101000a81548173ffffffffffffffffffffffffffffffffffffffff021916908373ffffffffffffffffffffffffffffffffffffffff16021790555050600a60008781526020019081526020016000206004018590806001815401808255809150509060018203906000526020600020016000909192909190915055505b505050505b61229881600a60008581526020019081526020016000206005015461385290919063ffffffff16565b600a60008481526020019081526020016000206005018190555034600d60003373ffffffffffffffffffffffffffffffffffffffff1673ffffffffffffffffffffffffffffffffffffffff168152602001908152602001600020600082825401925050819055507f57d932e8a875ad250d21d464af7676d96fa8c0e638f51dd20d9fd6768f4e63928282604051808381526020018281526020019250505060405180910390a15050565b60008060006060806000600a600088815260200190815260200160002060010160009054906101000a900460ff16151561240a576040517f08c379a00000000000000000000000000000000000000000000000000000000081526004018080602001828103825260238152602001807f70726f6a6563742077697468207468617420696420646f6573206e6f7420657881526020017f697374000000000000000000000000000000000000000000000000000000000081525060400191505060405180910390fd5b600a600088815260200190815260200160002060000154600a600089815260200190815260200160002060010160009054906101000a900460ff16600a60008a815260200190815260200160002060020154600a60008b8152602001908152602001600020600301600a60008c8152602001908152602001600020600401600a60008d8152602001908152602001600020600501548280548060200260200160405190810160405280929190818152602001828054801561252057602002820191906000526020600020905b8160009054906101000a900473ffffffffffffffffffffffffffffffffffffffff1673ffffffffffffffffffffffffffffffffffffffff16815260200190600101908083116124d6575b505050505092508180548060200260200160405190810160405280929190818152602001828054801561257257602002820191906000526020600020905b81548152602001906001019080831161255e575b5050505050915095509550955095509550955091939550919395565b600a6020528060005260406000206000915090508060000154908060010160009054906101000a900460ff16908060020154908060050154905084565b600d6020528060005260406000206000915090505481565b60008073ffffffffffffffffffffffffffffffffffffffff16600160009054906101000a900473ffffffffffffffffffffffffffffffffffffffff1673ffffffffffffffffffffffffffffffffffffffff16148061266b57506000612669600160009054906101000a900473ffffffffffffffffffffffffffffffffffffffff16613874565b145b1561267c5761267a600061387f565b505b600160009054906101000a900473ffffffffffffffffffffffffffffffffffffffff1673ffffffffffffffffffffffffffffffffffffffff166338cc48316040518163ffffffff167c0100000000000000000000000000000000000000000000000000000000028152600401602060405180830381600087803b15801561270257600080fd5b505af1158015612716573d6000803e3d6000fd5b505050506040513d602081101561272c57600080fd5b810190808051906020019092919050505073ffffffffffffffffffffffffffffffffffffffff166000809054906101000a900473ffffffffffffffffffffffffffffffffffffffff1673ffffffffffffffffffffffffffffffffffffffff1614151561289357600160009054906101000a900473ffffffffffffffffffffffffffffffffffffffff1673ffffffffffffffffffffffffffffffffffffffff166338cc48316040518163ffffffff167c0100000000000000000000000000000000000000000000000000000000028152600401602060405180830381600087803b15801561281857600080fd5b505af115801561282c573d6000803e3d6000fd5b505050506040513d602081101561284257600080fd5b81019080805190602001909291905050506000806101000a81548173ffffffffffffffffffffffffffffffffffffffff021916908373ffffffffffffffffffffffffffffffffffffffff1602179055505b6000809054906101000a900473ffffffffffffffffffffffffffffffffffffffff1673ffffffffffffffffffffffffffffffffffffffff1663c281d19e6040518163ffffffff167c010000000000000000000000000000000000000000000000000000000002815260040160206040518083038186803b15801561291657600080fd5b505afa15801561292a573d6000803e3d6000fd5b505050506040513d602081101561294057600080fd5b8101908080519060200190929190505050905090565b6000612963826000613890565b9050919050565b60008082511115156129e4576040517f08c379a000000000000000000000000000000000000000000000000000000000815260040180806020018281038252600e8152602001807f617272617920697320656d70747900000000000000000000000000000000000081525060200191505060405180910390fd5b60008090505b8251811015612a28578281815181101515612a0157fe5b90602001906020020151841415612a1b5780915050612a2a565b80806001019150506129ea565b505b92915050565b600080831415612a435760009050612a68565b60008284029050828482811515612a5657fe5b04141515612a6357600080fd5b809150505b92915050565b60006060600a6000858152602001908152602001600020600301805480602002602001604051908101604052809291908181526020018280548015612b0857602002820191906000526020600020905b8160009054906101000a900473ffffffffffffffffffffffffffffffffffffffff1673ffffffffffffffffffffffffffffffffffffffff1681526020019060010190808311612abe575b50505050509050612b198382613b2b565b91506000600a600086815260200190815260200160002060040183815481101515612b4057fe5b906000526020600020015490506000600a6000878152602001908152602001600020600201548202905060008210151515612be3576040517f08c379a000000000000000000000000000000000000000000000000000000000815260040180806020018281038252601f8152602001807f4e6f20736861726573206f776e656420696e20746869732070726f6a6563740081525060200191505060405180910390fd5b80600d60008773ffffffffffffffffffffffffffffffffffffffff1673ffffffffffffffffffffffffffffffffffffffff168152602001908152602001600020600082825403925050819055508473ffffffffffffffffffffffffffffffffffffffff166108fc829081150290604051600060405180830381858888f19350505050158015612c76573d6000803e3d6000fd5b506000600a600088815260200190815260200160002060040185815481101515612c9c57fe5b9060005260206000200181905550612cd382600a60008981526020019081526020016000206005015461383190919063ffffffff16565b600a6000888152602001908152602001600020600501819055506060600b60008773ffffffffffffffffffffffffffffffffffffffff1673ffffffffffffffffffffffffffffffffffffffff168152602001908152602001600020600101805480602002602001604051908101604052809291908181526020018280548015612d7b57602002820191906000526020600020905b815481526020019060010190808311612d67575b50505050509050612d8c878261296a565b94506000600b60008873ffffffffffffffffffffffffffffffffffffffff1673ffffffffffffffffffffffffffffffffffffffff16815260200190815260200160002060020186815481101515612ddf57fe5b9060005260206000200181905550612e4283600b60008973ffffffffffffffffffffffffffffffffffffffff1673ffffffffffffffffffffffffffffffffffffffff1681526020019081526020016000206003015461385290919063ffffffff16565b600b60008873ffffffffffffffffffffffffffffffffffffffff1673ffffffffffffffffffffffffffffffffffffffff1681526020019081526020016000206003018190555050505050505050565b60008073ffffffffffffffffffffffffffffffffffffffff16600160009054906101000a900473ffffffffffffffffffffffffffffffffffffffff1673ffffffffffffffffffffffffffffffffffffffff161480612f1957506000612f17600160009054906101000a900473ffffffffffffffffffffffffffffffffffffffff16613874565b145b15612f2a57612f28600061387f565b505b600160009054906101000a900473ffffffffffffffffffffffffffffffffffffffff1673ffffffffffffffffffffffffffffffffffffffff166338cc48316040518163ffffffff167c0100000000000000000000000000000000000000000000000000000000028152600401602060405180830381600087803b158015612fb057600080fd5b505af1158015612fc4573d6000803e3d6000fd5b505050506040513d6020811015612fda57600080fd5b810190808051906020019092919050505073ffffffffffffffffffffffffffffffffffffffff166000809054906101000a900473ffffffffffffffffffffffffffffffffffffffff1673ffffffffffffffffffffffffffffffffffffffff1614151561314157600160009054906101000a900473ffffffffffffffffffffffffffffffffffffffff1673ffffffffffffffffffffffffffffffffffffffff166338cc48316040518163ffffffff167c0100000000000000000000000000000000000000000000000000000000028152600401602060405180830381600087803b1580156130c657600080fd5b505af11580156130da573d6000803e3d6000fd5b505050506040513d60208110156130f057600080fd5b81019080805190602001909291905050506000806101000a81548173ffffffffffffffffffffffffffffffffffffffff021916908373ffffffffffffffffffffffffffffffffffffffff1602179055505b6000809054906101000a900473ffffffffffffffffffffffffffffffffffffffff1673ffffffffffffffffffffffffffffffffffffffff1663524f3889836040518263ffffffff167c01000000000000000000000000000000000000000000000000000000000281526004018080602001828103825283818151815260200191508051906020019080838360005b838110156131ea5780820151818401526020810190506131cf565b50505050905090810190601f1680156132175780820380516001836020036101000a031916815260200191505b5092505050602060405180830381600087803b15801561323657600080fd5b505af115801561324a573d6000803e3d6000fd5b505050506040513d602081101561326057600080fd5b81019080805190602001909291905050509050919050565b60008073ffffffffffffffffffffffffffffffffffffffff16600160009054906101000a900473ffffffffffffffffffffffffffffffffffffffff1673ffffffffffffffffffffffffffffffffffffffff161480613300575060006132fe600160009054906101000a900473ffffffffffffffffffffffffffffffffffffffff16613874565b145b156133115761330f600061387f565b505b600160009054906101000a900473ffffffffffffffffffffffffffffffffffffffff1673ffffffffffffffffffffffffffffffffffffffff166338cc48316040518163ffffffff167c0100000000000000000000000000000000000000000000000000000000028152600401602060405180830381600087803b15801561339757600080fd5b505af11580156133ab573d6000803e3d6000fd5b505050506040513d60208110156133c157600080fd5b810190808051906020019092919050505073ffffffffffffffffffffffffffffffffffffffff166000809054906101000a900473ffffffffffffffffffffffffffffffffffffffff1673ffffffffffffffffffffffffffffffffffffffff1614151561352857600160009054906101000a900473ffffffffffffffffffffffffffffffffffffffff1673ffffffffffffffffffffffffffffffffffffffff166338cc48316040518163ffffffff167c0100000000000000000000000000000000000000000000000000000000028152600401602060405180830381600087803b1580156134ad57600080fd5b505af11580156134c1573d6000803e3d6000fd5b505050506040513d60208110156134d757600080fd5b81019080805190602001909291905050506000806101000a81548173ffffffffffffffffffffffffffffffffffffffff021916908373ffffffffffffffffffffffffffffffffffffffff1602179055505b60008060009054906101000a900473ffffffffffffffffffffffffffffffffffffffff1673ffffffffffffffffffffffffffffffffffffffff1663524f3889856040518263ffffffff167c01000000000000000000000000000000000000000000000000000000000281526004018080602001828103825283818151815260200191508051906020019080838360005b838110156135d35780820151818401526020810190506135b8565b50505050905090810190601f1680156136005780820380516001836020036101000a031916815260200191505b5092505050602060405180830381600087803b15801561361f57600080fd5b505af1158015613633573d6000803e3d6000fd5b505050506040513d602081101561364957600080fd5b8101908080519060200190929190505050905062030d403a02670de0b6b3a76400000181111561368057600060010291505061382b565b6000809054906101000a900473ffffffffffffffffffffffffffffffffffffffff1673ffffffffffffffffffffffffffffffffffffffff1663adf59f9982600087876040518563ffffffff167c0100000000000000000000000000000000000000000000000000000000028152600401808481526020018060200180602001838103835285818151815260200191508051906020019080838360005b8381101561373757808201518184015260208101905061371c565b50505050905090810190601f1680156137645780820380516001836020036101000a031916815260200191505b50838103825284818151815260200191508051906020019080838360005b8381101561379d578082015181840152602081019050613782565b50505050905090810190601f1680156137ca5780820380516001836020036101000a031916815260200191505b50955050505050506020604051808303818588803b1580156137eb57600080fd5b505af11580156137ff573d6000803e3d6000fd5b50505050506040513d602081101561381657600080fd5b81019080805190602001909291905050509150505b92915050565b600080828401905083811015151561384857600080fd5b8091505092915050565b600082821115151561386357600080fd5b600082840390508091505092915050565b6000813b9050919050565b6000613889613c1d565b9050919050565b600060608390506000809050600080905060008090505b8351811015613b0c57603084828151811015156138c057fe5b9060200101517f010000000000000000000000000000000000000000000000000000000000000090047f0100000000000000000000000000000000000000000000000000000000000000027f0100000000000000000000000000000000000000000000000000000000000000900460ff16101580156139be57506039848281518110151561394a57fe5b9060200101517f010000000000000000000000000000000000000000000000000000000000000090047f0100000000000000000000000000000000000000000000000000000000000000027f0100000000000000000000000000000000000000000000000000000000000000900460ff1611155b15613a725781156139e15760008614156139d757613b0c565b8580600190039650505b600a83029250603084828151811015156139f757fe5b9060200101517f010000000000000000000000000000000000000000000000000000000000000090047f0100000000000000000000000000000000000000000000000000000000000000027f0100000000000000000000000000000000000000000000000000000000000000900460ff160383019250613aff565b602e8482815181101515613a8257fe5b9060200101517f010000000000000000000000000000000000000000000000000000000000000090047f0100000000000000000000000000000000000000000000000000000000000000027f0100000000000000000000000000000000000000000000000000000000000000900460ff161415613afe57600191505b5b80806001019150506138a7565b506000851115613b1f5784600a0a820291505b81935050505092915050565b6000808251111515613ba5576040517f08c379a000000000000000000000000000000000000000000000000000000000815260040180806020018281038252601f8152602001807f636f756c64206e6f742066696e6420696e766573746f7220616464726573730081525060200191505060405180910390fd5b60008090505b8251811015613c15578281815181101515613bc257fe5b9060200190602002015173ffffffffffffffffffffffffffffffffffffffff168473ffffffffffffffffffffffffffffffffffffffff161415613c085780915050613c17565b8080600101915050613bab565b505b92915050565b600080613c3d731d3b2638a7cc9f2cb3d298a3da7a90b67e5506ed613874565b1115613cdf57731d3b2638a7cc9f2cb3d298a3da7a90b67e5506ed600160006101000a81548173ffffffffffffffffffffffffffffffffffffffff021916908373ffffffffffffffffffffffffffffffffffffffff160217905550613cd66040805190810160405280600b81526020017f6574685f6d61696e6e65740000000000000000000000000000000000000000008152506140b3565b600190506140b0565b6000613cfe73c03a2615d5efaf5f49f60b7bb6583eaec212fdf1613874565b1115613da05773c03a2615d5efaf5f49f60b7bb6583eaec212fdf1600160006101000a81548173ffffffffffffffffffffffffffffffffffffffff021916908373ffffffffffffffffffffffffffffffffffffffff160217905550613d976040805190810160405280600c81526020017f6574685f726f707374656e3300000000000000000000000000000000000000008152506140b3565b600190506140b0565b6000613dbf73b7a07bcf2ba2f2703b24c0691b5278999c59ac7e613874565b1115613e615773b7a07bcf2ba2f2703b24c0691b5278999c59ac7e600160006101000a81548173ffffffffffffffffffffffffffffffffffffffff021916908373ffffffffffffffffffffffffffffffffffffffff160217905550613e586040805190810160405280600981526020017f6574685f6b6f76616e00000000000000000000000000000000000000000000008152506140b3565b600190506140b0565b6000613e8073146500cfd35b22e4a392fe0adc06de1a1368ed48613874565b1115613f225773146500cfd35b22e4a392fe0adc06de1a1368ed48600160006101000a81548173ffffffffffffffffffffffffffffffffffffffff021916908373ffffffffffffffffffffffffffffffffffffffff160217905550613f196040805190810160405280600b81526020017f6574685f72696e6b6562790000000000000000000000000000000000000000008152506140b3565b600190506140b0565b6000613f41736f485c8bf6fc43ea212e93bbf8ce046c7f1cb475613874565b1115613fa557736f485c8bf6fc43ea212e93bbf8ce046c7f1cb475600160006101000a81548173ffffffffffffffffffffffffffffffffffffffff021916908373ffffffffffffffffffffffffffffffffffffffff160217905550600190506140b0565b6000613fc47320e12a1f859b3feae5fb2a0a32c18f5a65555bbf613874565b1115614028577320e12a1f859b3feae5fb2a0a32c18f5a65555bbf600160006101000a81548173ffffffffffffffffffffffffffffffffffffffff021916908373ffffffffffffffffffffffffffffffffffffffff160217905550600190506140b0565b60006140477351efaf4c8b3c9afbd5ab9f4bbc82784ab6ef8faa613874565b11156140ab577351efaf4c8b3c9afbd5ab9f4bbc82784ab6ef8faa600160006101000a81548173ffffffffffffffffffffffffffffffffffffffff021916908373ffffffffffffffffffffffffffffffffffffffff160217905550600190506140b0565b600090505b90565b80600290805190602001906140c99291906141f6565b5050565b828054828255906000526020600020908101928215614146579160200282015b828111156141455782518260006101000a81548173ffffffffffffffffffffffffffffffffffffffff021916908373ffffffffffffffffffffffffffffffffffffffff160217905550916020019190600101906140ed565b5b5090506141539190614276565b5090565b828054828255906000526020600020908101928215614193579160200282015b82811115614192578251825591602001919060010190614177565b5b5090506141a091906142b9565b5090565b8280548282559060005260206000209081019282156141e55760005260206000209182015b828111156141e45782548255916001019190600101906141c9565b5b5090506141f291906142b9565b5090565b828054600181600116156101000203166002900490600052602060002090601f016020900481019282601f1061423757805160ff1916838001178555614265565b82800160010185558215614265579182015b82811115614264578251825591602001919060010190614249565b5b50905061427291906142b9565b5090565b6142b691905b808211156142b257600081816101000a81549073ffffffffffffffffffffffffffffffffffffffff02191690555060010161427c565b5090565b90565b6142db91905b808211156142d75760008160009055506001016142bf565b5090565b9056fea165627a7a7230582058a27570564d35f05dfadd0ac29eab0d86a78d77768cc7178cf25f040d0c48550029",
  "source": "pragma solidity ^0.5.0;\n\n// import libraries\nimport \"./SafeMath.sol\";\n\n// import contracts\nimport \"./EcogyOracle.sol\";\nimport \"./SafeMath.sol\";\n\ncontract Ecogy is EcogyOracle {\n    using SafeMath for uint256;\n    \n   /// TYPE DECLARATIONS\n    struct Project {\n        uint projectId;       // project identifier\n        bool available;       // true if project still has capacity for investment\n        uint price;           // how much it costs to invest in the project\n        address[] investors;  // array of investor addresses for this project\n        uint[] holdings;      // no of shares held by each investor\n        uint availableShares; // number of shares available to purchase\n    }\n    \n    struct Investor {\n        bool hasInvested;    // true if already invested in a project\n        uint[] investments;  // array of project id's that Investor has invested in\n        uint[] holdings;     // no of shares held in each project\n        uint shareBalance;   // number of shares that investor holds\n    }\n    \n    // conditions to prevent undesirable function calls\n    modifier condition(bool _condition, string memory _message) {\n        require(_condition, _message);\n        _;\n    }\n\n    modifier onlyEcogy() {\n        require(msg.sender == ecogy, \"Only Ecogy Energy can call this.\");\n        _;\n    }\n    \n   /// STATE VARIABLES\n    // declare payable ether account addresses for ecogy\n    address payable public ecogy;    \n    // Mapped Structs with Index [storage pattern]\n    uint[] public projectList;\n    mapping(uint => Project) public projectMap;    \n    // state variable that stores an investor struct for each possible address\n    mapping(address => Investor) public investorMap;\n    Investor[] investorList;\n    \n    mapping (address => uint) public pendingWithdrawals;\n    mapping (address => uint) public pendingROI;\n    \n    uint lastROICall = 0;\n    \n   /// EVENTS\n    // declare events\n    // these are to be used later by the JS app to display changes on the webpage\n    event ProjectCreated(uint id);\n    event InvestmentMade(uint id, uint numShares);\n    event ProjectFull();\n    \n   /// CONSTRUCTOR FUNCTION\n    // initialise the contract with two demo projects for testing purposes\n    constructor() public payable {\n        ecogy = msg.sender;\n        // demo projects\n        Project storage demo1 = projectMap[0];        \n        demo1.projectId = 0;\n        demo1.available = true;\n        demo1.price = 2*10**17;\n        demo1.availableShares = 100;\n        projectList.push(demo1.projectId);\n\n        Project storage demo2 = projectMap[1];\n        demo2.projectId = 1;\n        demo2.available = true;\n        demo2.price = 1*10**17;\n        demo2.availableShares = 100;\n        projectList.push(demo2.projectId);\n    }\n    \n   /// PUBLIC FUNCTIONS \n    // invest in a project\n    function invest(uint _projectId, uint numShares) public payable {\n        // ensure transaction value is correct\n        require(msg.value == (projectMap[_projectId].price.mul(numShares)), 'attach the correct amount of ether');\n        // ensure project id is valid\n        require(projectMap[_projectId].available, 'project with that id is not available to invest in');\n        // ensure number of shares is valid\n        require(projectMap[_projectId].availableShares >= numShares && numShares>0, 'project does not have that many shares available');\n        // check if investor exists\n        if (!investorMap[msg.sender].hasInvested) { // investor does not exist\n                // create new investor struct\n            Investor storage newInvestor = investorMap[msg.sender];\n            investorList.push(newInvestor);\n            \n            // update investor details and project details\n            newInvestor.investments.push(_projectId);\n            newInvestor.holdings.push(numShares);\n            newInvestor.hasInvested = true;\n            newInvestor.shareBalance = numShares;\n            projectMap[_projectId].investors.push(msg.sender);\n            projectMap[_projectId].holdings.push(numShares);\n        } else { // investor exists\n            // get investor struct\n            Investor storage currInvestor = investorMap[msg.sender];\n            \n            // find selected project in investor struct using basic algorithm\n            uint len = currInvestor.investments.length;\n            bool found = false;\n            uint i = 0;\n            \n            while(!found && i<len) {\n                if (_projectId == currInvestor.investments[i]) {found = true;}\n                i++;\n            }\n            \n            if(found) { // investor has previously invested in selected project\n                // update investor balances\n                currInvestor.shareBalance = currInvestor.shareBalance.add(numShares);\n                currInvestor.holdings[i-1] = currInvestor.holdings[i-1].add(numShares);\n                \n                // find investor in selected project struct\n                len = projectMap[_projectId].investors.length;\n                i = 0;\n                found = false;\n                \n                while (!found && i<len) {\n                    if (projectMap[_projectId].investors[i] == msg.sender) {found = true;}\n                    i++;\n                }\n                // update project balances\n                projectMap[_projectId].holdings[i-1] += numShares;    \n            } else {\n                // investor exists but has not yet invested in selected project\n                // update investor and project balances\n                currInvestor.investments.push(_projectId);\n                currInvestor.holdings.push(numShares);\n                currInvestor.shareBalance = currInvestor.shareBalance.add(numShares);\n                projectMap[_projectId].investors.push(msg.sender);\n                projectMap[_projectId].holdings.push(numShares);\n            }\n        }\n        \n        // update availableShares in project struct\n        projectMap[_projectId].availableShares = projectMap[_projectId].availableShares.sub(numShares);\n        \n        pendingWithdrawals[msg.sender] += msg.value;\n        \n        emit InvestmentMade(_projectId, numShares);\n    }\n\n    // make a project available to invest in\n    function createProject(uint _projectId, uint _price) onlyEcogy public {\n        require(_price >= 0, \"Cannot have a negative price\");\n        require(!projectMap[_projectId].available, 'project with that id already exists');\n        \n        // create new project struct\n        Project storage newProject = projectMap[_projectId];\n        address[] memory _investors; // initialise investors address array\n        uint[] memory _holdings;\n        \n        newProject.projectId = _projectId;\n        newProject.available = true;\n        newProject.price = _price;\n        newProject.investors = _investors;\n        newProject.holdings = _holdings;\n        newProject.availableShares = 100;\n        \n        // append project list\n        projectList.push(newProject.projectId);\n        \n        emit ProjectCreated(_projectId);\n    }\n    \n    function deleteProject(uint _id) onlyEcogy public payable {\n        require(projectMap[_id].available, 'project with that id does not exist');\n        for (uint i = 0; i < projectMap[_id].investors.length; i++) {\n            address payable investor = address(uint160(projectMap[_id].investors[i]));\n            divest(_id, investor);\n        }\n        projectMap[_id].available = false;\n    }\n    \n    function sellShares(uint _projectId) public {\n        address payable a = msg.sender;\n        uint i = _projectId;\n        divest(i, a);\n        emit InvestmentMade(_projectId, 0);\n    }\n\n    // calculate amount of ether investor is owed\n    \n    function calculateReturn(uint _projectId) public returns (uint) {\n        // logic to only have this called once per period???\n        require(now - lastROICall > 4 weeks, 'RoI already calculated for this month');\n        \n        // HAVE TO PUT IN UPDATE() CALL BEFORE CALLING THIS FROM FRONTEND \n        // get investments of msg.sender\n        uint i = getIndex(_projectId, investorMap[msg.sender].investments);\n        // calculate value of investment in ether\n        uint sharesHeld = investorMap[msg.sender].holdings[i];\n        pendingROI[msg.sender] += earningpershare.mul(sharesHeld);\n        if (earningpershare.mul(sharesHeld) > 0) lastROICall = now;\n        return earningpershare.mul(sharesHeld);   \n    }\n    \n    function sendROI(address payable _shareholder) public onlyEcogy payable {\n        uint ROI;\n        pendingROI[_shareholder] = ROI;\n        pendingROI[_shareholder] = 0;\n        _shareholder.transfer(ROI);\n    }\n\n    // Getters\n    function getProjectList() public view returns (uint[] memory) {\n        return projectList;\n    }\n\n    function getProject(uint id) \n        public \n        view \n        returns (uint, bool, uint, address[] memory, uint[] memory, uint) \n    {\n        require(projectMap[id].available, 'project with that id does not exist');\n        return (\n            projectMap[id].projectId, \n            projectMap[id].available, \n            projectMap[id].price, \n            projectMap[id].investors, \n            projectMap[id].holdings, \n            projectMap[id].availableShares\n            );\n    }\n\n    function getInvestor() \n        public \n        view \n        returns (bool, uint[] memory, uint[] memory, uint)\n    {\n        return (\n            investorMap[msg.sender].hasInvested,\n            investorMap[msg.sender].investments,\n            investorMap[msg.sender].holdings,\n            investorMap[msg.sender].shareBalance\n            );\n    }\n   \n    function contractBalance() public view returns (uint) { return address(this).balance; }\n   \n     \n   /// INTERNAL FUNCTIONS\n   // sell all shares in specific project\n    function divest(uint _projectId, address payable _shareholder) internal {\n        // retrieve project details\n        uint index;\n        address[] memory array = projectMap[_projectId].investors;\n        index = getAddressIndex(_shareholder, array);\n        \n        uint shares = projectMap[_projectId].holdings[index];\n        uint owed = shares * projectMap[_projectId].price;\n        \n        // revert if zero share balance\n        require(shares >= 0, 'No shares owned in this project');\n        // build this into the web app code^^\n        \n        // withdrawal pattern\n        pendingWithdrawals[_shareholder] -= owed;\n        _shareholder.transfer(owed);\n        \n        projectMap[_projectId].holdings[index] = 0;\n        projectMap[_projectId].availableShares = projectMap[_projectId].availableShares.add(shares);\n        \n        uint[] memory investments = investorMap[_shareholder].investments;\n        index = getIndex(_projectId, investments);\n        \n        investorMap[_shareholder].holdings[index] = 0;\n        investorMap[_shareholder].shareBalance = investorMap[_shareholder].shareBalance.sub(shares);\n    }\n\n    function getAddressIndex(address _address, address[] memory _array) \n        internal \n        pure \n        returns (uint) \n    {\n        require(_array.length > 0, 'could not find investor address');\n        for (uint i = 0; i < _array.length; i++) {\n            if (_address == _array[i]) return i;\n        }\n    }\n   \n    function getIndex(uint _id, uint[] memory _array) \n        internal \n        pure \n        returns (uint) \n    {\n        require(_array.length > 0, 'array is empty');\n        for (uint i = 0; i < _array.length; i++) {\n            if (_id == _array[i]) return i;\n        }\n    }\n}",
  "sourcePath": "/home/kartikey/Documents/EcogyDapp/contracts/Ecogy.sol",
  "compiler": {
    "name": "solc",
    "version": "0.5.0+commit.1d4f565a.Emscripten.clang"
  },
  "schemaVersion": "3.0.2",
  "updatedAt": "2019-02-28T03:20:03.348Z",
  "devdoc": {
    "methods": {}
  },
  "userdoc": {
    "methods": {
      "constructor": "CONSTRUCTOR FUNCTION",
      "invest(uint256,uint256)": {
        "notice": "PUBLIC FUNCTIONS "
      }
    }
  }
}